:020000020000FC
:02000000FFC13E
:100400000FEF0DBF0FE30EBF6CD074D0A0E0B0E2D1
:10041000C0E0D0E20091A80603FF3BC000910806AF
:10042000009344060091A80602FDF4CF00E000937B
:10043000000800EA009326080FE00093270805E073
:100440000093000800910C0800FFFCCF00C001E001
:1004500000930C080091A80602FDDCCF009108066D
:100460000D9300E00093000800EA009326080FE0D7
:100470000093270805E0009300080091A80602FDFC
:10048000C9CF00910C0800FFF8CF01E000930C08E1
:10049000F4CFC0E0D0E20091A80603FFBBCFAC17B9
:1004A000BD07B9F309910093440650E060E4561784
:1004B00011F4C0E0D0E2539500E00093000808EB8F
:1004C000009326080BE00093270805E0009300083E
:1004D00000910C0800FFFCCF01E000930C08DBCF7B
:1004E000FFCF0F930FEF0093400600E0009300064C
:1004F0000F9108950F9300E00093010800E5009329
:0C050000260803EC009327080F910895D3
:00000001FF
